{
  "contractName": "EdublocksTokenSale",
  "abi": [
    {
      "inputs": [
        {
          "internalType": "contract EdublocksToken",
          "name": "_tokenContract",
          "type": "address"
        },
        {
          "internalType": "uint256",
          "name": "_tokenPrice",
          "type": "uint256"
        }
      ],
      "stateMutability": "nonpayable",
      "type": "constructor"
    },
    {
      "anonymous": false,
      "inputs": [
        {
          "indexed": false,
          "internalType": "address",
          "name": "_buyer",
          "type": "address"
        },
        {
          "indexed": false,
          "internalType": "uint256",
          "name": "_amount",
          "type": "uint256"
        }
      ],
      "name": "Sell",
      "type": "event"
    },
    {
      "inputs": [],
      "name": "tokenContract",
      "outputs": [
        {
          "internalType": "contract EdublocksToken",
          "name": "",
          "type": "address"
        }
      ],
      "stateMutability": "view",
      "type": "function",
      "constant": true
    },
    {
      "inputs": [],
      "name": "tokenPrice",
      "outputs": [
        {
          "internalType": "uint256",
          "name": "",
          "type": "uint256"
        }
      ],
      "stateMutability": "view",
      "type": "function",
      "constant": true
    },
    {
      "inputs": [],
      "name": "tokensSold",
      "outputs": [
        {
          "internalType": "uint256",
          "name": "",
          "type": "uint256"
        }
      ],
      "stateMutability": "view",
      "type": "function",
      "constant": true
    },
    {
      "inputs": [
        {
          "internalType": "uint256",
          "name": "_numberOfTokens",
          "type": "uint256"
        }
      ],
      "name": "buyTokens",
      "outputs": [],
      "stateMutability": "payable",
      "type": "function",
      "payable": true
    },
    {
      "inputs": [
        {
          "internalType": "address",
          "name": "_recipient",
          "type": "address"
        },
        {
          "internalType": "uint256",
          "name": "_numberOfTokens",
          "type": "uint256"
        }
      ],
      "name": "payEducator",
      "outputs": [],
      "stateMutability": "payable",
      "type": "function",
      "payable": true
    },
    {
      "inputs": [
        {
          "internalType": "address",
          "name": "recipient",
          "type": "address"
        },
        {
          "internalType": "uint256",
          "name": "_numberOfTokens",
          "type": "uint256"
        }
      ],
      "name": "rewardToken",
      "outputs": [],
      "stateMutability": "payable",
      "type": "function",
      "payable": true
    },
    {
      "inputs": [],
      "name": "convertEth",
      "outputs": [],
      "stateMutability": "nonpayable",
      "type": "function"
    }
  ],
  "bytecode": "0x60806040523480156200001157600080fd5b5060405162000eef38038062000eef833981810160405281019062000037919062000180565b336000806101000a81548173ffffffffffffffffffffffffffffffffffffffff021916908373ffffffffffffffffffffffffffffffffffffffff16021790555081600160006101000a81548173ffffffffffffffffffffffffffffffffffffffff021916908373ffffffffffffffffffffffffffffffffffffffff160217905550806002819055505050620001c7565b600080fd5b600073ffffffffffffffffffffffffffffffffffffffff82169050919050565b6000620000f982620000cc565b9050919050565b60006200010d82620000ec565b9050919050565b6200011f8162000100565b81146200012b57600080fd5b50565b6000815190506200013f8162000114565b92915050565b6000819050919050565b6200015a8162000145565b81146200016657600080fd5b50565b6000815190506200017a816200014f565b92915050565b600080604083850312156200019a5762000199620000c7565b5b6000620001aa858286016200012e565b9250506020620001bd8582860162000169565b9150509250929050565b610d1880620001d76000396000f3fe6080604052600436106100705760003560e01c806355a373d61161004e57806355a373d6146100d35780637ff9b596146100fe578063f7edc98b14610129578063fb41138c1461014557610070565b80632e72621b146100755780633610724e1461008c578063518ab2a8146100a8575b600080fd5b34801561008157600080fd5b5061008a610161565b005b6100a660048036038101906100a1919061093a565b610386565b005b3480156100b457600080fd5b506100bd610543565b6040516100ca9190610976565b60405180910390f35b3480156100df57600080fd5b506100e8610549565b6040516100f59190610a10565b60405180910390f35b34801561010a57600080fd5b5061011361056f565b6040516101209190610976565b60405180910390f35b610143600480360381019061013e9190610a69565b610575565b005b61015f600480360381019061015a9190610a69565b610773565b005b60008054906101000a900473ffffffffffffffffffffffffffffffffffffffff1673ffffffffffffffffffffffffffffffffffffffff163373ffffffffffffffffffffffffffffffffffffffff16146101b957600080fd5b600160009054906101000a900473ffffffffffffffffffffffffffffffffffffffff1673ffffffffffffffffffffffffffffffffffffffff1663a9059cbb60008054906101000a900473ffffffffffffffffffffffffffffffffffffffff16600160009054906101000a900473ffffffffffffffffffffffffffffffffffffffff1673ffffffffffffffffffffffffffffffffffffffff166370a08231306040518263ffffffff1660e01b81526004016102739190610ab8565b602060405180830381865afa158015610290573d6000803e3d6000fd5b505050506040513d601f19601f820116820180604052508101906102b49190610ae8565b6040518363ffffffff1660e01b81526004016102d1929190610b15565b6020604051808303816000875af11580156102f0573d6000803e3d6000fd5b505050506040513d601f19601f820116820180604052508101906103149190610b76565b61031d57600080fd5b60008054906101000a900473ffffffffffffffffffffffffffffffffffffffff1673ffffffffffffffffffffffffffffffffffffffff166108fc479081150290604051600060405180830381858888f19350505050158015610383573d6000803e3d6000fd5b50565b610392816002546108c8565b341461039d57600080fd5b80600160009054906101000a900473ffffffffffffffffffffffffffffffffffffffff1673ffffffffffffffffffffffffffffffffffffffff166370a08231306040518263ffffffff1660e01b81526004016103f99190610ab8565b602060405180830381865afa158015610416573d6000803e3d6000fd5b505050506040513d601f19601f8201168201806040525081019061043a9190610ae8565b101561044557600080fd5b600160009054906101000a900473ffffffffffffffffffffffffffffffffffffffff1673ffffffffffffffffffffffffffffffffffffffff1663a9059cbb33836040518363ffffffff1660e01b81526004016104a2929190610b15565b6020604051808303816000875af11580156104c1573d6000803e3d6000fd5b505050506040513d601f19601f820116820180604052508101906104e59190610b76565b6104ee57600080fd5b80600360008282546105009190610bd2565b925050819055507f5e5e995ce3133561afceaa51a9a154d5db228cd7525d34df5185582c18d3df093382604051610538929190610b15565b60405180910390a150565b60035481565b600160009054906101000a900473ffffffffffffffffffffffffffffffffffffffff1681565b60025481565b80600160009054906101000a900473ffffffffffffffffffffffffffffffffffffffff1673ffffffffffffffffffffffffffffffffffffffff166370a08231336040518263ffffffff1660e01b81526004016105d19190610ab8565b602060405180830381865afa1580156105ee573d6000803e3d6000fd5b505050506040513d601f19601f820116820180604052508101906106129190610ae8565b101561061d57600080fd5b600160009054906101000a900473ffffffffffffffffffffffffffffffffffffffff1673ffffffffffffffffffffffffffffffffffffffff1663a9059cbb83836040518363ffffffff1660e01b815260040161067a929190610b15565b6020604051808303816000875af1158015610699573d6000803e3d6000fd5b505050506040513d601f19601f820116820180604052508101906106bd9190610b76565b6106c657600080fd5b600160009054906101000a900473ffffffffffffffffffffffffffffffffffffffff1673ffffffffffffffffffffffffffffffffffffffff16634705532133836040518363ffffffff1660e01b8152600401610723929190610b15565b6020604051808303816000875af1158015610742573d6000803e3d6000fd5b505050506040513d601f19601f820116820180604052508101906107669190610b76565b61076f57600080fd5b5050565b80600160009054906101000a900473ffffffffffffffffffffffffffffffffffffffff1673ffffffffffffffffffffffffffffffffffffffff166370a08231306040518263ffffffff1660e01b81526004016107cf9190610ab8565b602060405180830381865afa1580156107ec573d6000803e3d6000fd5b505050506040513d601f19601f820116820180604052508101906108109190610ae8565b101561081b57600080fd5b600160009054906101000a900473ffffffffffffffffffffffffffffffffffffffff1673ffffffffffffffffffffffffffffffffffffffff1663a9059cbb83836040518363ffffffff1660e01b8152600401610878929190610b15565b6020604051808303816000875af1158015610897573d6000803e3d6000fd5b505050506040513d601f19601f820116820180604052508101906108bb9190610b76565b6108c457600080fd5b5050565b6000808214806108f05750828283856108e19190610c28565b9250826108ee9190610cb1565b145b6108f957600080fd5b92915050565b600080fd5b6000819050919050565b61091781610904565b811461092257600080fd5b50565b6000813590506109348161090e565b92915050565b6000602082840312156109505761094f6108ff565b5b600061095e84828501610925565b91505092915050565b61097081610904565b82525050565b600060208201905061098b6000830184610967565b92915050565b600073ffffffffffffffffffffffffffffffffffffffff82169050919050565b6000819050919050565b60006109d66109d16109cc84610991565b6109b1565b610991565b9050919050565b60006109e8826109bb565b9050919050565b60006109fa826109dd565b9050919050565b610a0a816109ef565b82525050565b6000602082019050610a256000830184610a01565b92915050565b6000610a3682610991565b9050919050565b610a4681610a2b565b8114610a5157600080fd5b50565b600081359050610a6381610a3d565b92915050565b60008060408385031215610a8057610a7f6108ff565b5b6000610a8e85828601610a54565b9250506020610a9f85828601610925565b9150509250929050565b610ab281610a2b565b82525050565b6000602082019050610acd6000830184610aa9565b92915050565b600081519050610ae28161090e565b92915050565b600060208284031215610afe57610afd6108ff565b5b6000610b0c84828501610ad3565b91505092915050565b6000604082019050610b2a6000830185610aa9565b610b376020830184610967565b9392505050565b60008115159050919050565b610b5381610b3e565b8114610b5e57600080fd5b50565b600081519050610b7081610b4a565b92915050565b600060208284031215610b8c57610b8b6108ff565b5b6000610b9a84828501610b61565b91505092915050565b7f4e487b7100000000000000000000000000000000000000000000000000000000600052601160045260246000fd5b6000610bdd82610904565b9150610be883610904565b9250827fffffffffffffffffffffffffffffffffffffffffffffffffffffffffffffffff03821115610c1d57610c1c610ba3565b5b828201905092915050565b6000610c3382610904565b9150610c3e83610904565b9250817fffffffffffffffffffffffffffffffffffffffffffffffffffffffffffffffff0483118215151615610c7757610c76610ba3565b5b828202905092915050565b7f4e487b7100000000000000000000000000000000000000000000000000000000600052601260045260246000fd5b6000610cbc82610904565b9150610cc783610904565b925082610cd757610cd6610c82565b5b82820490509291505056fea26469706673582212205de7997b1c1a613c5170a9b7b0f496309d33803cb8430bc5026f0e46c949dbc364736f6c634300080e0033",
  "immutableReferences": {},
  "source": "//SPDX-License-Identifier: MIT\npragma solidity ^0.8.14;\n//pragma experimental ABIEncoderV2;\n\nimport \"./EdublocksToken.sol\";\n\ncontract EdublocksTokenSale {\n    address payable admin;\n    EdublocksToken public tokenContract;\n    uint256 public tokenPrice;\n    uint256 public tokensSold;\n\n    event Sell(address _buyer, uint256 _amount);\n\n    constructor(EdublocksToken _tokenContract, uint256 _tokenPrice)  {\n        admin = payable(msg.sender);\n        tokenContract = _tokenContract;\n        tokenPrice = _tokenPrice;\n    }\n\n    function multiply(uint x, uint y) internal pure returns (uint z) {\n        require(y == 0 || (z = x * y) / y == x);\n    }\n\n    function buyTokens(uint256 _numberOfTokens) public payable {\n        require(msg.value == multiply(_numberOfTokens, tokenPrice));\n        require(tokenContract.balanceOf(address(this)) >= _numberOfTokens);\n        require(tokenContract.transfer(msg.sender, _numberOfTokens));\n\n        tokensSold += _numberOfTokens;\n\n        emit Sell(msg.sender, _numberOfTokens);\n    }\n    \n    function payEducator(address _recipient,uint256 _numberOfTokens) public payable{ \n        require(tokenContract.balanceOf(msg.sender) >= _numberOfTokens); \n        require(tokenContract.transfer(_recipient, _numberOfTokens)); \n        require(tokenContract.deduct(msg.sender, _numberOfTokens)); \n    }\n    \n    function rewardToken(address recipient,uint256 _numberOfTokens) public payable{\n        require(tokenContract.balanceOf(address(this)) >= _numberOfTokens);\n        require(tokenContract.transfer(recipient, _numberOfTokens));\n    }\n    \n    function convertEth() public  {\n        require(msg.sender == admin);\n        require(tokenContract.transfer(address(admin), tokenContract.balanceOf(address(this))));\n        admin.transfer(address(this).balance);\n    }\n}",
  "sourcePath": "D:\\EduBlocks-main\\contracts\\EdublocksTokenSale.sol",
  "compiler": {
    "name": "solc",
    "version": "0.8.14+commit.80d49f37.Emscripten.clang"
  },
  "schemaVersion": "3.4.7",
  "updatedAt": "2022-05-26T17:55:01.976Z",
  "networkType": "ethereum",
  "devdoc": {
    "kind": "dev",
    "methods": {},
    "version": 1
  },
  "userdoc": {
    "kind": "user",
    "methods": {},
    "version": 1
  }
}