{
  "contractName": "Edublocks",
  "abi": [
    {
      "inputs": [
        {
          "internalType": "string",
          "name": "n",
          "type": "string"
        },
        {
          "internalType": "string",
          "name": "pass",
          "type": "string"
        }
      ],
      "name": "addStudent",
      "outputs": [],
      "stateMutability": "nonpayable",
      "type": "function"
    },
    {
      "inputs": [
        {
          "internalType": "string",
          "name": "n",
          "type": "string"
        },
        {
          "internalType": "string",
          "name": "pass",
          "type": "string"
        }
      ],
      "name": "addEducator",
      "outputs": [],
      "stateMutability": "nonpayable",
      "type": "function"
    },
    {
      "inputs": [
        {
          "internalType": "string",
          "name": "n",
          "type": "string"
        },
        {
          "internalType": "string",
          "name": "p",
          "type": "string"
        }
      ],
      "name": "studentLogin",
      "outputs": [
        {
          "internalType": "int256",
          "name": "",
          "type": "int256"
        },
        {
          "internalType": "bool",
          "name": "",
          "type": "bool"
        }
      ],
      "stateMutability": "view",
      "type": "function",
      "constant": true
    },
    {
      "inputs": [
        {
          "internalType": "string",
          "name": "n",
          "type": "string"
        },
        {
          "internalType": "string",
          "name": "p",
          "type": "string"
        }
      ],
      "name": "educatorLogin",
      "outputs": [
        {
          "internalType": "int256",
          "name": "",
          "type": "int256"
        },
        {
          "internalType": "bool",
          "name": "",
          "type": "bool"
        }
      ],
      "stateMutability": "view",
      "type": "function",
      "constant": true
    },
    {
      "inputs": [
        {
          "internalType": "string",
          "name": "n",
          "type": "string"
        },
        {
          "internalType": "string",
          "name": "desc",
          "type": "string"
        },
        {
          "internalType": "string",
          "name": "auth",
          "type": "string"
        },
        {
          "internalType": "int256",
          "name": "p",
          "type": "int256"
        },
        {
          "internalType": "int256",
          "name": "d",
          "type": "int256"
        },
        {
          "internalType": "int256",
          "name": "e_id",
          "type": "int256"
        }
      ],
      "name": "addCourse",
      "outputs": [],
      "stateMutability": "nonpayable",
      "type": "function"
    },
    {
      "inputs": [
        {
          "internalType": "int256",
          "name": "s_id",
          "type": "int256"
        },
        {
          "internalType": "int256",
          "name": "c_id",
          "type": "int256"
        },
        {
          "internalType": "int256",
          "name": "_time",
          "type": "int256"
        },
        {
          "internalType": "int256",
          "name": "e_id",
          "type": "int256"
        }
      ],
      "name": "buyCourse",
      "outputs": [],
      "stateMutability": "nonpayable",
      "type": "function"
    },
    {
      "inputs": [
        {
          "internalType": "int256",
          "name": "s_id",
          "type": "int256"
        },
        {
          "internalType": "int256",
          "name": "c_id",
          "type": "int256"
        },
        {
          "internalType": "int256",
          "name": "_m",
          "type": "int256"
        }
      ],
      "name": "reviewAssignment",
      "outputs": [],
      "stateMutability": "nonpayable",
      "type": "function"
    },
    {
      "inputs": [
        {
          "internalType": "int256",
          "name": "s_id",
          "type": "int256"
        },
        {
          "internalType": "int256",
          "name": "c_id",
          "type": "int256"
        },
        {
          "internalType": "int256",
          "name": "_time",
          "type": "int256"
        }
      ],
      "name": "submitAssignment",
      "outputs": [
        {
          "internalType": "bool",
          "name": "",
          "type": "bool"
        }
      ],
      "stateMutability": "nonpayable",
      "type": "function"
    },
    {
      "inputs": [
        {
          "internalType": "int256",
          "name": "_id",
          "type": "int256"
        }
      ],
      "name": "getCourse",
      "outputs": [
        {
          "components": [
            {
              "internalType": "int256",
              "name": "id",
              "type": "int256"
            },
            {
              "internalType": "string",
              "name": "name",
              "type": "string"
            },
            {
              "internalType": "string",
              "name": "description",
              "type": "string"
            },
            {
              "internalType": "string",
              "name": "author_name",
              "type": "string"
            },
            {
              "internalType": "int256",
              "name": "author_id",
              "type": "int256"
            },
            {
              "internalType": "int256",
              "name": "price",
              "type": "int256"
            },
            {
              "internalType": "int256",
              "name": "users",
              "type": "int256"
            },
            {
              "internalType": "int256",
              "name": "deadline",
              "type": "int256"
            }
          ],
          "internalType": "struct Edublocks.Course",
          "name": "",
          "type": "tuple"
        }
      ],
      "stateMutability": "view",
      "type": "function",
      "constant": true
    },
    {
      "inputs": [
        {
          "internalType": "int256",
          "name": "_id",
          "type": "int256"
        }
      ],
      "name": "getStudent",
      "outputs": [
        {
          "components": [
            {
              "internalType": "int256",
              "name": "id",
              "type": "int256"
            },
            {
              "internalType": "string",
              "name": "user_name",
              "type": "string"
            },
            {
              "internalType": "string",
              "name": "password",
              "type": "string"
            },
            {
              "internalType": "int256",
              "name": "balance",
              "type": "int256"
            },
            {
              "internalType": "int256[]",
              "name": "courses_id",
              "type": "int256[]"
            },
            {
              "internalType": "int256[]",
              "name": "courses_deadline",
              "type": "int256[]"
            },
            {
              "internalType": "int256[]",
              "name": "marks",
              "type": "int256[]"
            }
          ],
          "internalType": "struct Edublocks.Student",
          "name": "",
          "type": "tuple"
        }
      ],
      "stateMutability": "view",
      "type": "function",
      "constant": true
    },
    {
      "inputs": [
        {
          "internalType": "int256",
          "name": "_id",
          "type": "int256"
        }
      ],
      "name": "getEducator",
      "outputs": [
        {
          "components": [
            {
              "internalType": "int256",
              "name": "id",
              "type": "int256"
            },
            {
              "internalType": "string",
              "name": "user_name",
              "type": "string"
            },
            {
              "internalType": "string",
              "name": "password",
              "type": "string"
            },
            {
              "internalType": "int256",
              "name": "balance",
              "type": "int256"
            },
            {
              "internalType": "int256[]",
              "name": "courses_id",
              "type": "int256[]"
            }
          ],
          "internalType": "struct Edublocks.Educator",
          "name": "",
          "type": "tuple"
        }
      ],
      "stateMutability": "view",
      "type": "function",
      "constant": true
    },
    {
      "inputs": [],
      "name": "getCourseCount",
      "outputs": [
        {
          "internalType": "int256",
          "name": "",
          "type": "int256"
        }
      ],
      "stateMutability": "view",
      "type": "function",
      "constant": true
    }
  ],
  "bytecode": "0x608060405234801561001057600080fd5b506127e5806100206000396000f3fe608060405234801561001057600080fd5b50600436106100b45760003560e01c8063c419f65b11610071578063c419f65b1461018c578063c839e9b5146101bd578063ce54417d146101ed578063d34b78981461021d578063e27bb1f71461024d578063e812eaa414610269576100b4565b80630fc70461146100b9578063163072e8146100d55780631b1fc4b6146100f15780638b24119b1461010d5780638db09d521461013d57806396cfda061461016e575b600080fd5b6100d360048036038101906100ce91906119dc565b610285565b005b6100ef60048036038101906100ea9190611a8a565b610475565b005b61010b60048036038101906101069190611b6b565b610689565b005b61012760048036038101906101229190611b6b565b6108c1565b6040516101349190611bd9565b60405180910390f35b610157600480360381019061015291906119dc565b610a5a565b604051610165929190611c03565b60405180910390f35b610176610bc7565b6040516101839190611c2c565b60405180910390f35b6101a660048036038101906101a191906119dc565b610bd1565b6040516101b4929190611c03565b60405180910390f35b6101d760048036038101906101d29190611c47565b610d3d565b6040516101e49190611dc9565b60405180910390f35b61020760048036038101906102029190611c47565b610f53565b6040516102149190611f52565b60405180910390f35b61023760048036038101906102329190611c47565b6111c0565b6040516102449190611ff8565b60405180910390f35b610267600480360381019061026291906119dc565b61137d565b005b610283600480360381019061027e919061201a565b611510565b005b600660003373ffffffffffffffffffffffffffffffffffffffff1673ffffffffffffffffffffffffffffffffffffffff16815260200190815260200160002060009054906101000a900460ff1615610312576040517f08c379a0000000000000000000000000000000000000000000000000000000008152600401610309906120de565b60405180910390fd5b600160008154809291906103259061212d565b91905055506001546004600060015481526020019081526020016000206000018190555081600460006001548152602001908152602001600020600101908051906020019061037592919061172e565b508060046000600154815260200190815260200160002060020190805190602001906103a292919061172e565b506000600460006001548152602001908152602001600020600301819055506001600660003373ffffffffffffffffffffffffffffffffffffffff1673ffffffffffffffffffffffffffffffffffffffff16815260200190815260200160002060006101000a81548160ff0219169083151502179055506001600760003373ffffffffffffffffffffffffffffffffffffffff1673ffffffffffffffffffffffffffffffffffffffff16815260200190815260200160002060006101000a81548160ff0219169083151502179055505050565b600760003373ffffffffffffffffffffffffffffffffffffffff1673ffffffffffffffffffffffffffffffffffffffff16815260200190815260200160002060009054906101000a900460ff16610501576040517f08c379a00000000000000000000000000000000000000000000000000000000081526004016104f8906121c1565b60405180910390fd5b600260008154809291906105149061212d565b91905055506002546005600060025481526020019081526020016000206000018190555085600560006002548152602001908152602001600020600101908051906020019061056492919061172e565b5084600560006002548152602001908152602001600020600201908051906020019061059192919061172e565b508360056000600254815260200190815260200160002060030190805190602001906105be92919061172e565b5080600560006002548152602001908152602001600020600401819055508260056000600254815260200190815260200160002060050181905550600060056000600254815260200190815260200160002060060181905550620151808261062691906121e1565b60056000600254815260200190815260200160002060070181905550600460008281526020019081526020016000206004016002549080600181540180825580915050600190039060005260206000200160009091909190915055505050505050565b600760003373ffffffffffffffffffffffffffffffffffffffff1673ffffffffffffffffffffffffffffffffffffffff16815260200190815260200160002060009054906101000a900460ff16610715576040517f08c379a000000000000000000000000000000000000000000000000000000000815260040161070c90612344565b60405180910390fd5b60006003600085815260200190815260200160002060040180549050905060005b818110156107c2578360036000878152602001908152602001600020600401828154811061076757610766612364565b5b9060005260206000200154036107af57826003600087815260200190815260200160002060060182815481106107a05761079f612364565b5b90600052602060002001819055505b80806107ba9061239d565b915050610736565b50605a82126107fe5760146003600086815260200190815260200160002060030160008282546107f291906123e5565b925050819055506108bb565b6050821261083957600a60036000868152602001908152602001600020600301600082825461082d91906123e5565b925050819055506108ba565b6046821261087457600560036000868152602001908152602001600020600301600082825461086891906123e5565b925050819055506108b9565b60288212156108b8576040517f08c379a00000000000000000000000000000000000000000000000000000000081526004016108af906124c5565b60405180910390fd5b5b5b5b50505050565b6000600760003373ffffffffffffffffffffffffffffffffffffffff1673ffffffffffffffffffffffffffffffffffffffff16815260200190815260200160002060009054906101000a900460ff1615610950576040517f08c379a000000000000000000000000000000000000000000000000000000000815260040161094790612531565b60405180910390fd5b60006003600086815260200190815260200160002060040180549050905060005b81811015610a4c57846003600088815260200190815260200160002060040182815481106109a2576109a1612364565b5b906000526020600020015403610a39576003600087815260200190815260200160002060050181815481106109da576109d9612364565b5b906000526020600020015484136109f657600192505050610a53565b6000600360008881526020019081526020016000206006018281548110610a2057610a1f612364565b5b9060005260206000200181905550600092505050610a53565b8080610a449061239d565b915050610971565b5060009150505b9392505050565b6000806000805b6000548113610b645785604051602001610a7b919061258d565b6040516020818303038152906040528051906020012060036000838152602001908152602001600020600101604051602001610ab79190612698565b60405160208183030381529060405280519060200120148015610b3a575084604051602001610ae6919061258d565b6040516020818303038152906040528051906020012060036000838152602001908152602001600020600201604051602001610b229190612698565b60405160208183030381529060405280519060200120145b15610b515760019150806001935093505050610bc0565b8080610b5c9061212d565b915050610a61565b5080610b97577fffffffffffffffffffffffffffffffffffffffffffffffffffffffffffffffff60009250925050610bc0565b7fffffffffffffffffffffffffffffffffffffffffffffffffffffffffffffffff600092509250505b9250929050565b6000600254905090565b6000806000805b6001548113610cda5785604051602001610bf2919061258d565b6040516020818303038152906040528051906020012060046000838152602001908152602001600020600101604051602001610c2e9190612698565b60405160208183030381529060405280519060200120148015610cb1575084604051602001610c5d919061258d565b6040516020818303038152906040528051906020012060046000838152602001908152602001600020600201604051602001610c999190612698565b60405160208183030381529060405280519060200120145b15610cc757600191508082935093505050610d36565b8080610cd29061212d565b915050610bd8565b5080610d0d577fffffffffffffffffffffffffffffffffffffffffffffffffffffffffffffffff60009250925050610d36565b7fffffffffffffffffffffffffffffffffffffffffffffffffffffffffffffffff600092509250505b9250929050565b610d456117b4565b600560008381526020019081526020016000206040518061010001604052908160008201548152602001600182018054610d7e906125d3565b80601f0160208091040260200160405190810160405280929190818152602001828054610daa906125d3565b8015610df75780601f10610dcc57610100808354040283529160200191610df7565b820191906000526020600020905b815481529060010190602001808311610dda57829003601f168201915b50505050508152602001600282018054610e10906125d3565b80601f0160208091040260200160405190810160405280929190818152602001828054610e3c906125d3565b8015610e895780601f10610e5e57610100808354040283529160200191610e89565b820191906000526020600020905b815481529060010190602001808311610e6c57829003601f168201915b50505050508152602001600382018054610ea2906125d3565b80601f0160208091040260200160405190810160405280929190818152602001828054610ece906125d3565b8015610f1b5780601f10610ef057610100808354040283529160200191610f1b565b820191906000526020600020905b815481529060010190602001808311610efe57829003601f168201915b505050505081526020016004820154815260200160058201548152602001600682015481526020016007820154815250509050919050565b610f5b6117f9565b600360008381526020019081526020016000206040518060e001604052908160008201548152602001600182018054610f93906125d3565b80601f0160208091040260200160405190810160405280929190818152602001828054610fbf906125d3565b801561100c5780601f10610fe15761010080835404028352916020019161100c565b820191906000526020600020905b815481529060010190602001808311610fef57829003601f168201915b50505050508152602001600282018054611025906125d3565b80601f0160208091040260200160405190810160405280929190818152602001828054611051906125d3565b801561109e5780601f106110735761010080835404028352916020019161109e565b820191906000526020600020905b81548152906001019060200180831161108157829003601f168201915b50505050508152602001600382015481526020016004820180548060200260200160405190810160405280929190818152602001828054801561110057602002820191906000526020600020905b8154815260200190600101908083116110ec575b505050505081526020016005820180548060200260200160405190810160405280929190818152602001828054801561115857602002820191906000526020600020905b815481526020019060010190808311611144575b50505050508152602001600682018054806020026020016040519081016040528092919081815260200182805480156111b057602002820191906000526020600020905b81548152602001906001019080831161119c575b5050505050815250509050919050565b6111c8611836565b600460008381526020019081526020016000206040518060a001604052908160008201548152602001600182018054611200906125d3565b80601f016020809104026020016040519081016040528092919081815260200182805461122c906125d3565b80156112795780601f1061124e57610100808354040283529160200191611279565b820191906000526020600020905b81548152906001019060200180831161125c57829003601f168201915b50505050508152602001600282018054611292906125d3565b80601f01602080910402602001604051908101604052809291908181526020018280546112be906125d3565b801561130b5780601f106112e05761010080835404028352916020019161130b565b820191906000526020600020905b8154815290600101906020018083116112ee57829003601f168201915b50505050508152602001600382015481526020016004820180548060200260200160405190810160405280929190818152602001828054801561136d57602002820191906000526020600020905b815481526020019060010190808311611359575b5050505050815250509050919050565b600660003373ffffffffffffffffffffffffffffffffffffffff1673ffffffffffffffffffffffffffffffffffffffff16815260200190815260200160002060009054906101000a900460ff161561140a576040517f08c379a0000000000000000000000000000000000000000000000000000000008152600401611401906120de565b60405180910390fd5b60008081548092919061141c9061212d565b9190505550600054600360008054815260200190815260200160002060000181905550816003600080548152602001908152602001600020600101908051906020019061146a92919061172e565b50806003600080548152602001908152602001600020600201908051906020019061149692919061172e565b5060006003600080548152602001908152602001600020600301819055506001600660003373ffffffffffffffffffffffffffffffffffffffff1673ffffffffffffffffffffffffffffffffffffffff16815260200190815260200160002060006101000a81548160ff0219169083151502179055505050565b600760003373ffffffffffffffffffffffffffffffffffffffff1673ffffffffffffffffffffffffffffffffffffffff16815260200190815260200160002060009054906101000a900460ff161561159d576040517f08c379a0000000000000000000000000000000000000000000000000000000008152600401611594906126fb565b60405180910390fd5b6005600084815260200190815260200160002060060160008154809291906115c49061212d565b9190505550600360008581526020019081526020016000206004018390806001815401808255809150506001900390600052602060002001600090919091909150556003600085815260200190815260200160002060050182600560008681526020019081526020016000206007015461163e91906123e5565b908060018154018082558091505060019003906000526020600020016000909190919091505560056000848152602001908152602001600020600501546003600086815260200190815260200160002060030160008282546116a0919061271b565b9250508190555060056000848152602001908152602001600020600501546004600083815260200190815260200160002060030160008282546116e391906123e5565b92505081905550600360008581526020019081526020016000206006016000908060018154018082558091505060019003906000526020600020016000909190919091505550505050565b82805461173a906125d3565b90600052602060002090601f01602090048101928261175c57600085556117a3565b82601f1061177557805160ff19168380011785556117a3565b828001600101855582156117a3579182015b828111156117a2578251825591602001919060010190611787565b5b5090506117b09190611865565b5090565b60405180610100016040528060008152602001606081526020016060815260200160608152602001600081526020016000815260200160008152602001600081525090565b6040518060e00160405280600081526020016060815260200160608152602001600081526020016060815260200160608152602001606081525090565b6040518060a0016040528060008152602001606081526020016060815260200160008152602001606081525090565b5b8082111561187e576000816000905550600101611866565b5090565b6000604051905090565b600080fd5b600080fd5b600080fd5b600080fd5b6000601f19601f8301169050919050565b7f4e487b7100000000000000000000000000000000000000000000000000000000600052604160045260246000fd5b6118e9826118a0565b810181811067ffffffffffffffff82111715611908576119076118b1565b5b80604052505050565b600061191b611882565b905061192782826118e0565b919050565b600067ffffffffffffffff821115611947576119466118b1565b5b611950826118a0565b9050602081019050919050565b82818337600083830152505050565b600061197f61197a8461192c565b611911565b90508281526020810184848401111561199b5761199a61189b565b5b6119a684828561195d565b509392505050565b600082601f8301126119c3576119c2611896565b5b81356119d384826020860161196c565b91505092915050565b600080604083850312156119f3576119f261188c565b5b600083013567ffffffffffffffff811115611a1157611a10611891565b5b611a1d858286016119ae565b925050602083013567ffffffffffffffff811115611a3e57611a3d611891565b5b611a4a858286016119ae565b9150509250929050565b6000819050919050565b611a6781611a54565b8114611a7257600080fd5b50565b600081359050611a8481611a5e565b92915050565b60008060008060008060c08789031215611aa757611aa661188c565b5b600087013567ffffffffffffffff811115611ac557611ac4611891565b5b611ad189828a016119ae565b965050602087013567ffffffffffffffff811115611af257611af1611891565b5b611afe89828a016119ae565b955050604087013567ffffffffffffffff811115611b1f57611b1e611891565b5b611b2b89828a016119ae565b9450506060611b3c89828a01611a75565b9350506080611b4d89828a01611a75565b92505060a0611b5e89828a01611a75565b9150509295509295509295565b600080600060608486031215611b8457611b8361188c565b5b6000611b9286828701611a75565b9350506020611ba386828701611a75565b9250506040611bb486828701611a75565b9150509250925092565b60008115159050919050565b611bd381611bbe565b82525050565b6000602082019050611bee6000830184611bca565b92915050565b611bfd81611a54565b82525050565b6000604082019050611c186000830185611bf4565b611c256020830184611bca565b9392505050565b6000602082019050611c416000830184611bf4565b92915050565b600060208284031215611c5d57611c5c61188c565b5b6000611c6b84828501611a75565b91505092915050565b611c7d81611a54565b82525050565b600081519050919050565b600082825260208201905092915050565b60005b83811015611cbd578082015181840152602081019050611ca2565b83811115611ccc576000848401525b50505050565b6000611cdd82611c83565b611ce78185611c8e565b9350611cf7818560208601611c9f565b611d00816118a0565b840191505092915050565b600061010083016000830151611d246000860182611c74565b5060208301518482036020860152611d3c8282611cd2565b91505060408301518482036040860152611d568282611cd2565b91505060608301518482036060860152611d708282611cd2565b9150506080830151611d856080860182611c74565b5060a0830151611d9860a0860182611c74565b5060c0830151611dab60c0860182611c74565b5060e0830151611dbe60e0860182611c74565b508091505092915050565b60006020820190508181036000830152611de38184611d0b565b905092915050565b600081519050919050565b600082825260208201905092915050565b6000819050602082019050919050565b6000611e238383611c74565b60208301905092915050565b6000602082019050919050565b6000611e4782611deb565b611e518185611df6565b9350611e5c83611e07565b8060005b83811015611e8d578151611e748882611e17565b9750611e7f83611e2f565b925050600181019050611e60565b5085935050505092915050565b600060e083016000830151611eb26000860182611c74565b5060208301518482036020860152611eca8282611cd2565b91505060408301518482036040860152611ee48282611cd2565b9150506060830151611ef96060860182611c74565b5060808301518482036080860152611f118282611e3c565b91505060a083015184820360a0860152611f2b8282611e3c565b91505060c083015184820360c0860152611f458282611e3c565b9150508091505092915050565b60006020820190508181036000830152611f6c8184611e9a565b905092915050565b600060a083016000830151611f8c6000860182611c74565b5060208301518482036020860152611fa48282611cd2565b91505060408301518482036040860152611fbe8282611cd2565b9150506060830151611fd36060860182611c74565b5060808301518482036080860152611feb8282611e3c565b9150508091505092915050565b600060208201905081810360008301526120128184611f74565b905092915050565b600080600080608085870312156120345761203361188c565b5b600061204287828801611a75565b945050602061205387828801611a75565b935050604061206487828801611a75565b925050606061207587828801611a75565b91505092959194509250565b600082825260208201905092915050565b7f4164647265737320616c726561647920686173206163636f756e740000000000600082015250565b60006120c8601b83612081565b91506120d382612092565b602082019050919050565b600060208201905081810360008301526120f7816120bb565b9050919050565b7f4e487b7100000000000000000000000000000000000000000000000000000000600052601160045260246000fd5b600061213882611a54565b91507f7fffffffffffffffffffffffffffffffffffffffffffffffffffffffffffffff820361216a576121696120fe565b5b600182019050919050565b7f4e6f7420617574686f72697a656420746f2061646420636f7572736500000000600082015250565b60006121ab601c83612081565b91506121b682612175565b602082019050919050565b600060208201905081810360008301526121da8161219e565b9050919050565b60006121ec82611a54565b91506121f783611a54565b9250827f7fffffffffffffffffffffffffffffffffffffffffffffffffffffffffffffff0482116000841360008413161615612236576122356120fe565b5b817f80000000000000000000000000000000000000000000000000000000000000000583126000841260008413161615612273576122726120fe565b5b827f800000000000000000000000000000000000000000000000000000000000000005821260008413600084121616156122b0576122af6120fe565b5b827f7fffffffffffffffffffffffffffffffffffffffffffffffffffffffffffffff05821260008412600084121616156122ed576122ec6120fe565b5b828202905092915050565b7f4e6f7420617574686f72697a656420746f2072657669657720636f7572736500600082015250565b600061232e601f83612081565b9150612339826122f8565b602082019050919050565b6000602082019050818103600083015261235d81612321565b9050919050565b7f4e487b7100000000000000000000000000000000000000000000000000000000600052603260045260246000fd5b6000819050919050565b60006123a882612393565b91507fffffffffffffffffffffffffffffffffffffffffffffffffffffffffffffffff82036123da576123d96120fe565b5b600182019050919050565b60006123f082611a54565b91506123fb83611a54565b9250817f7fffffffffffffffffffffffffffffffffffffffffffffffffffffffffffffff03831360008312151615612436576124356120fe565b5b817f800000000000000000000000000000000000000000000000000000000000000003831260008312161561246e5761246d6120fe565b5b828201905092915050565b7f536f7272792c20796f752068617665206661696c65642e000000000000000000600082015250565b60006124af601783612081565b91506124ba82612479565b602082019050919050565b600060208201905081810360008301526124de816124a2565b9050919050565b7f4e6f7420617574686f72697a656420746f207375626d697420636f7572736500600082015250565b600061251b601f83612081565b9150612526826124e5565b602082019050919050565b6000602082019050818103600083015261254a8161250e565b9050919050565b600081905092915050565b600061256782611c83565b6125718185612551565b9350612581818560208601611c9f565b80840191505092915050565b6000612599828461255c565b915081905092915050565b7f4e487b7100000000000000000000000000000000000000000000000000000000600052602260045260246000fd5b600060028204905060018216806125eb57607f821691505b6020821081036125fe576125fd6125a4565b5b50919050565b60008190508160005260206000209050919050565b60008154612626816125d3565b6126308186612551565b9450600182166000811461264b576001811461265c5761268f565b60ff1983168652818601935061268f565b61266585612604565b60005b8381101561268757815481890152600182019150602081019050612668565b838801955050505b50505092915050565b60006126a48284612619565b915081905092915050565b7f4e6f7420617574686f72697a656420746f2062757920636f7572736500000000600082015250565b60006126e5601c83612081565b91506126f0826126af565b602082019050919050565b60006020820190508181036000830152612714816126d8565b9050919050565b600061272682611a54565b915061273183611a54565b9250827f80000000000000000000000000000000000000000000000000000000000000000182126000841215161561276c5761276b6120fe565b5b827f7fffffffffffffffffffffffffffffffffffffffffffffffffffffffffffffff0182136000841216156127a4576127a36120fe565b5b82820390509291505056fea264697066735822122098864b4af0ac8ff33587d4da3cb87d35d9aebff0bd3292aceb0bf9589ea6737f64736f6c634300080e0033",
  "immutableReferences": {},
  "source": "//SPDX-License-Identifier: MIT\npragma solidity ^0.8.14;\n//pragma experimental ABIEncoderV2;\n\ncontract Edublocks {\n    struct Student {\n        int256 id;\n        string user_name;\n        string password;\n        int256 balance;\n        int256[] courses_id;\n        int256[] courses_deadline;\n        int256[] marks;\n    }\n    struct Educator {\n        int256 id;\n        string user_name;\n        string password;\n        int256 balance;\n        int256[] courses_id;\n    }\n    struct Course {\n        int256 id;\n        string name;\n        string description;\n        string author_name;\n        int256 author_id;\n        int256 price;\n        int256 users;\n        int256 deadline;\n    }\n\n    int256 studentCount;\n    int256 educatorCount;\n    int256 courseCount;\n\n    mapping(int256 => Student) students;\n    mapping(int256 => Educator) educators;\n    mapping(int256 => Course) courses;\n    mapping(address => bool) hasAccount;\n    mapping(address => bool) isEducator;\n\n    function addStudent(string memory n, string memory pass) public {\n        require(!hasAccount[msg.sender], \"Address already has account\");\n        studentCount++;\n        students[studentCount].id = studentCount;\n        students[studentCount].user_name = n;\n        students[studentCount].password = pass;\n        students[studentCount].balance = 0;\n        hasAccount[msg.sender] = true;\n    }\n\n    function addEducator(string memory n, string memory pass) public {\n        require(!hasAccount[msg.sender], \"Address already has account\");\n        educatorCount++;\n        educators[educatorCount].id = educatorCount;\n        educators[educatorCount].user_name = n;\n        educators[educatorCount].password = pass;\n        educators[educatorCount].balance = 0;\n        hasAccount[msg.sender] = true;\n        isEducator[msg.sender] = true; // set the account as an Educator\n    }\n\n    function studentLogin(string memory n, string memory p)\n        public\n        view\n        returns (int256, bool)\n    {\n        //require(!isEducator[msg.sender], \"Cannot login as Student\"); //check if it's a student account\n        bool found = false;\n        for (int256 i = 0; i <= studentCount; i++) {\n            if (\n                keccak256(abi.encodePacked(students[i].user_name)) ==\n                keccak256(abi.encodePacked(n)) &&\n                keccak256(abi.encodePacked(students[i].password)) ==\n                keccak256(abi.encodePacked(p))\n            ) {\n                found = true;\n                return (i, true);\n            }\n        }\n        if (!found) {\n            return (-1, false);\n        }\n         return (-1, false);\n    }\n\n    function educatorLogin(string memory n, string memory p)\n        public\n        view\n        returns (int256, bool)\n    {\n        // require(isEducator[msg.sender], \"Cannot login as Eeucator\"); //check if it's an Educator account\n        bool found = false;\n        for (int256 i = 0; i <= educatorCount; i++) {\n            if (\n                keccak256(abi.encodePacked(educators[i].user_name)) ==\n                keccak256(abi.encodePacked(n)) &&\n                keccak256(abi.encodePacked(educators[i].password)) ==\n                keccak256(abi.encodePacked(p))\n            ) {\n                found = true;\n                return (i,found);\n            }\n        }\n        if (!found) {\n            return (-1, false);\n        }\n        return (-1, false);\n    }\n\n    function addCourse(\n        string memory n,\n        string memory desc,\n        string memory auth,\n        int256 p,\n        int256 d,\n        int256 e_id\n    ) public {\n        require(isEducator[msg.sender], \"Not authorized to add course\"); //check if it's an Educator account\n        courseCount++;\n        courses[courseCount].id = courseCount;\n        courses[courseCount].name = n;\n        courses[courseCount].description = desc;\n        courses[courseCount].author_name = auth;\n        courses[courseCount].author_id = e_id;\n        courses[courseCount].price = p;\n        courses[courseCount].users = 0;\n        courses[courseCount].deadline = d * 1 days;\n        //adding course ID to educator struct\n        educators[e_id].courses_id.push(courseCount);\n    }\n\n    function buyCourse(\n        int256 s_id,\n        int256 c_id,\n        int256 _time,\n        int256 e_id\n    ) public {\n        require(!isEducator[msg.sender], \"Not authorized to buy course\"); //check if it's a Student account\n        courses[c_id].users++;\n        students[s_id].courses_id.push(c_id);\n        students[s_id].courses_deadline.push(courses[c_id].deadline + _time);\n        students[s_id].balance -= courses[c_id].price; //deducting student balance\n        educators[e_id].balance += courses[c_id].price; //payment for educator\n        students[s_id].marks.push(0); //initializing marks for course\n    }\n\n    function reviewAssignment(\n        int256 s_id,\n        int256 c_id,\n        int256 _m\n    ) public {\n        require(isEducator[msg.sender], \"Not authorized to review course\"); //only educator can review assignments\n        uint256 totalCourses = students[s_id].courses_id.length;\n        for (uint256 i = 0; i < totalCourses; i++) {\n            if (students[s_id].courses_id[i] == c_id) {\n                students[s_id].marks[i] = _m;\n            }\n        }\n        if (_m >= 90) {\n            students[s_id].balance += 20;\n        } else if (_m >= 80) {\n            students[s_id].balance += 10;\n        } else if (_m >= 70) {\n            students[s_id].balance += 5;\n        } else if (_m < 40) {\n            revert(\"Sorry, you have failed.\");\n        }\n    }\n\n    function submitAssignment(\n        int256 s_id,\n        int256 c_id,\n        int256 _time\n    ) \n    external  returns (bool) {\n        require(!isEducator[msg.sender], \"Not authorized to submit course\"); //check if it's a Student account\n        uint256 totalCourses = students[s_id].courses_id.length;\n        for (uint256 i = 0; i < totalCourses; i++) {\n            if (students[s_id].courses_id[i] == c_id) {\n                if (_time <= students[s_id].courses_deadline[i]) {\n                    return (true);\n                }\n                //if deadline passed,set marks=0\n                else {\n                    students[s_id].marks[i] = 0;\n                    return (false);\n                }\n            }\n        }\n        return (false);\n    }\n\n    function getCourse(int256 _id) public view returns (Course memory) {\n        return (courses[_id]);\n    }\n\n    function getStudent(int256 _id) public view returns (Student memory) {\n        return (students[_id]);\n    }\n\n    function getEducator(int256 _id) public view returns (Educator memory) {\n        return (educators[_id]);\n    }\n\n    function getCourseCount() public view returns (int256) {\n        return (courseCount);\n    }\n}\n",
  "sourcePath": "D:\\EduBlocks-main\\contracts\\Edublocks.sol",
  "compiler": {
    "name": "solc",
    "version": "0.8.14+commit.80d49f37.Emscripten.clang"
  },
  "schemaVersion": "3.4.7",
  "updatedAt": "2022-05-26T17:54:58.266Z",
  "networkType": "ethereum",
  "devdoc": {
    "kind": "dev",
    "methods": {},
    "version": 1
  },
  "userdoc": {
    "kind": "user",
    "methods": {},
    "version": 1
  }
}